:1000000004308A00452C00008C396933F2322032EA
:10001000EF33F23A00008C396933F2322034613A1E
:10002000613669000C31EC37EB32A032E4346C32CB
:100030006900303084008313000803192C2806302F
:10004000F800F701F70B2228F80B21287B30F70086
:10005000F70B2828800B1F28080036183128861136
:1000600032288615831686118312B618392806128F
:100070003A2806168316061283123619412886126C
:1000800042288616831686128312B619492806134B
:100090004A280617831606130000831206158316D6
:1000A00006110230F700F70B532856280000831280
:1000B00006118316061183120800B70183168615F0
:1000C0000030831286190130B704831606160030FB
:1000D0008312061A0130F7000310F70D7708B704F2
:1000E0008316861600308312861A0130F700F70D4A
:1000F000F70DFC30F7057708B704831606170030B4
:100100008312061B0130F700F70DF70DF70DF830DD
:10011000F7057708B7043708F800080083160611BA
:100120000610861083120610831606108615061612
:100130008616061783128614831686100000831213
:10014000061583160611000083125D207808B6009C
:100150000611831606110000831206158316061178
:10016000B128B228000083125D207808B50006117E
:100170008316061186110612861206138312360E96
:10018000F700F030F70577083504F8007808B50077
:10019000B51FCC2883169628B308031DD128061056
:1001A000D2280614831606100000831286108316C8
:1001B0008610000083120611831606118312340E76
:1001C000B5000F30B5053508B6002D2034080F39BD
:1001D000B500B6002D2008002830AC000C30AD0072
:1001E0000130AE000630AF000611831606118312EF
:1001F0000610831606108312861083168610861149
:100200000612861206130611061086100F3083128E
:10021000B00019200130AB002B08033C031C182947
:100220000330B6002D200530B0001920AB0A0C2990
:100230000230B6002D200530B0001920AB012B088C
:10024000033C031C2F292C302B0784008313000848
:10025000B000B3013008B4008E20AB0A1F298A1108
:100260000A12602C300B352938294030B100392969
:10027000B10101302F02B10731088038B200B3015B
:100280003208B4008E2008002E08073A03195229BC
:100290000B3A03195729063A03195F29023A031941
:1002A00065296A290130AF00B00032216F29B301FE
:1002B0000130B4008E200230B00019206F290130C7
:1002C000AF000230B00032216F29B3011030B4000A
:1002D0008E206F290130B3002E08B4008E20080054
:1002E0002030B700B301B401B501B6012E08FA0001
:1002F0002D08F9002C08F8002B08F7000310771CD4
:100300008F292F08B30730080318300FB4073108BE
:100310000318310FB50732080318320FB607B60CB1
:10032000B50CB40CB30CFA0CF90CF80CF70CB70BB9
:100330007E2908000B08AB008B13831603178C175C
:100340000C140000000083120313AB1B8B17031760
:100350000C087F390319EE290313AB0003170D08AE
:100360000313AC0003170F080313AD002B08AE00F6
:1003700044212C0803178D0003132D0803178F0049
:1003800003130B08AE008B13831603178C170C1482
:100390000000000083120313AE1B8B1703170C0D14
:1003A0000E0D7F390319EE290313AB0003170D0857
:1003B0000313AC0003170F080313AD002B08AE00A6
:1003C00044212C0803178D0003132D0803178F00F9
:1003D0008D0A03198F0A03139A29031703130800C0
:1003E000A1018316081083120814831608168312BD
:1003F000081E272A831608168312081AFA29313094
:10040000AE0044210130A0002608AE002508AD0052
:100410002408AC002308AB00B201B101B0010A30DE
:10042000AF00702120087707A3007808A4000030EF
:1004300003180130A4077908A50000300318013023
:10044000A5077A08A600003003180130A607831616
:1004500088168312881E592A831688168312881AD2
:100460002C2A3230AE0044210230A0002608AE0013
:100470002508AD002408AC002308AB00B201B1018F
:10048000B0010A30AF00702120087707A300780878
:10049000A400003003180130A4077908A50000303B
:1004A00003180130A5077A08A600003003180130B0
:1004B000A607831608178312081F8B2A83160817AE
:1004C0008312081B5E2A3330AE0044210330A000A3
:1004D0002608AE002508AD002408AC002308AB00B8
:1004E000B201B101B0010A30AF00702120087707D6
:1004F000A3007808A400003003180130A40779088D
:10050000A500003003180130A5077A08A6000030C6
:1005100003180130A60783160810831208108316EB
:10052000881083128814831608168312081EC52AA1
:10053000831608168312081A982A3430AE00442114
:100540000430A0002608AE002508AD002408AC0049
:100550002308AB00B201B101B0010A30AF00702135
:1005600020087707A3007808A400003003180130A2
:10057000A4077908A500003003180130A5077A0800
:10058000A600003003180130A607831688168312D0
:10059000881EF72A831688168312881ACA2A3530CD
:1005A000AE0044210530A0002608AE002508AD00AD
:1005B0002408AC002308AB00B201B101B0010A303D
:1005C000AF00702120087707A3007808A40000304E
:1005D00003180130A4077908A50000300318013082
:1005E000A5077A08A600003003180130A607831675
:1005F00008178312081F292B831608178312081B5C
:10060000FC2A3630AE0044210630A0002608AE0099
:100610002508AD002408AC002308AB00B201B101ED
:10062000B0010A30AF00702120087707A3007808D6
:10063000A400003003180130A4077908A500003099
:1006400003180130A5077A08A6000030031801300E
:10065000A607831688108312881083160811831248
:100660000815831608168312081E632B83160816B6
:100670008312081A362B3730AE0044210730A00011
:100680002608AE002508AD002408AC002308AB0006
:10069000B201B101B0010A30AF0070212008770724
:1006A000A3007808A400003003180130A4077908DB
:1006B000A500003003180130A5077A08A600003015
:1006C00003180130A607831688168312881E952BFF
:1006D000831688168312881A682B3830AE0044219E
:1006E0000830A0002608AE002508AD002408AC00A4
:1006F0002308AB00B201B101B0010A30AF00702194
:1007000020087707A3007808A40000300318013000
:10071000A4077908A500003003180130A5077A085E
:10072000A600003003180130A607831608178312AD
:10073000081FC72B831608178312081B9A2B393002
:10074000AE0044210930A0002608AE002508AD0007
:100750002408AC002308AB00B201B101B0010A309B
:10076000AF00702120087707A3007808A4000030AC
:1007700003180130A4077908A500003003180130E0
:10078000A5077A08A600003003180130A6078316D3
:100790000811831208118316881183128815831695
:1007A00088168312881E002C831688168312881AD6
:1007B000D42B3030AE004421A0012608AE0025081D
:1007C000AD002408AC002308AB00B201B101B001B8
:1007D0000A30AF00702120087707A3007808A40032
:1007E000003003180130A4077908A5000030031871
:1007F0000130A5077A08A600003003180130A607CB
:10080000831608178312081F3E2C831608178312BD
:10081000081B052C27082302031D292C2808240265
:10082000031D292C29082502031D292C2A0826022C
:10083000031D292C2208023C031C292C0430031719
:100840008D0000308F0003139A210130A207A10010
:10085000332C0B3003178D0000308F0003139A21C7
:100860000130A207A1002208033C03183E2C1230DD
:1008700003178D0000308F0003139A21831688110F
:10088000831288112308F800080003081F39830029
:10089000A001A101A201A601A501A401A301AA0131
:1008A000BC30A9006130A8004E30A70083161F1489
:1008B0009F141F159F1107309C0083138312EC288F
:1008C0000F30831688008312A108031D692CF021C4
:1008D000742C0430AB00FA30B0001920AB0B6B2C39
:0C08E0000C30AE004421F021642C6300B9
:02400E00323F3F
:00000001FF
;PIC16F877A
;CRC=F2E6  CREATED="21-Ara-22 14:52"
